:100000000C942A000C943F000C943F000C943F0089
:100010000C943F000C943F000C943F000C943F0064
:100020000C943F000C943F000C943F000C943F0054
:100030000C943F000C943F000C943F000C943F0044
:100040000C943F000C943F000C943F000C943F0034
:100050000C943F0011241FBECFE5D8E0DEBFCDBF1A
:1000600010E0A0E6B0E0E2E0F1E002C005900D9201
:10007000A437B107D9F70E9441000C947F000C947B
:100080000000DF93CF93CDB7DEB764970FB6F89437
:10009000DEBF0FBECDBF8FEF87BB81BBDE011196E8
:1000A000E0E6F0E084E101900D928150E1F720E07C
:1000B00030E0AE014F5F5F4FA9E0B0E068EC70E068
:1000C000F901EE0FFF1FE40FF51F808182BBFD01D8
:1000D000E21BF30BEE0FFF1FE40FF51F808188BBBF
:1000E00088EB9BE0FB013197F1F70197D9F72F5F80
:1000F0003F4F2A30310524F320E030E0E1CFF8947F
:02010000FFCF2F
:100102003F0006005B004F0066006D007D000700A7
:040112007F006F00FB
:00000001FF
