S01000005069766F745F56352E7372656318
S11300000C942A000C9447000C9447000C9447006D
S11300100C9447000C9447000C9447000C94470040
S11300200C9447000C9447000C9447000C94FB007C
S11300300C9447000C9447000C9447000C94470020
S11300400C9447000C9447000C9447000C94470010
S11300500C94470011241FBECFE5D8E0DEBFCDBF0E
S113006014E0A0E6B0E0EEE6FDE102C005900D92DA
S1130070AC36B107D9F714E0ACE6B4E001C01D9288
S1130080A63CB107E1F70E9489020C94B50E0C94CA
S113009000000E94D30008951F93CF93DF93EC01D7
S11300A0162F0E94DA000E94F800883009F5CE016C
S11300B080709770880F892F881F990B9195806A9B
S11300C00E94E3000E94F8008831A1F48C2F0E9462
S11300D0E3000E94F800883279F4812F0E94E30043
S11300E00E94F800883251F40E94E00081E007C0C9
S11300F080E005C080E003C080E001C080E0DF91C3
S1130100CF911F910895EF92FF920F931F93CF9376
S1130110DF938C017B010E94DA000E94F800883092
S113012081F5E801CC0FCD2FCC1FDD0BD195CE701E
S11301308C2F806A0E94E3000E94F800883119F530
S1130140802F0E94E3000E94F8008832F1F40E949C
S1130150DA000E94F8008031D1F48C2F816A0E9469
S1130160E3000E94F8008034A1F40E94F100F7013A
S113017080830E94F800883571F40E94E00081E0D9
S11301800BC080E009C080E007C080E005C080E0CB
S113019003C080E001C080E0DF91CF911F910F91F7
S11301A0FF90EF90089582E080B994E096BF11B873
S11301B082B9089584EA86BF06B607FEFDCF089586
S11301C084E986BF089583B984E886BF06B607FE2E
S11301D0FDCF089584EC86BF06B607FEFDCF83B13C
S11301E0089584E886BF06B607FEFDCF83B108955F
S11301F081B1887F08951F920F920FB60F92112438
S11302002F933F934F935F936F937F938F939F931A
S1130210AF93BF93EF93FF9380917E0490917F04FB
S1130220A0918004B09181040196A11DB11D809319
S11302307E0490937F04A0938004B093810481E0B2
S113024090E00E94780E90E0A0E0B0E080938804F3
S113025090938904A0938A04B0938B0480E090E087
S11302600E94780E90E0A0E0B0E08093C2049093E6
S1130270C304A093C404B093C50480917E049091F8
S11302807F04A0918004B091810480312EE0920714
S113029020E0A20720E0B20731F58091BA049091E2
S11302A0BB04A091BC04B091BD040097A105B105A5
S11302B0D1F484E090E00E94780E8130A1F0809126
S11302C0C2049091C304A091C404B091C5040196E2
S11302D0A11DB11D8093C2049093C304A093C404D0
S11302E0B093C50492C08091C2049091C304A091BC
S11302F0C404B091C5048C339105A105B10540F146
S11303008091BA049091BB04A091BC04B091BD0447
S11303100097A105B105E1F48091880490918904C6
S1130320A0918A04B0918B040196A11DB11D809304
S1130330880490938904A0938A04B0938B04109248
S1130340C2041092C3041092C4041092C5045DC088
S11303508091880490918904A0918A04B0918B04BF
S113036088319105A105B10509F584E090E00E946A
S1130370780E8130D9F081E090E0A0E0B0E0809385
S1130380BA049093BB04A093BC04B093BD04C19A77
S113039080918604909187049093A5048093A4048B
S11303A0109287041092860497982FC080917E043F
S11303B090917F04A0918004B091810440918604BF
S11303C05091870460E070E0481759076A077B077B
S11303D010F0979A1AC080917E0490917F04A091A6
S11303E08004B091810481312EE0920720E0A207BD
S11303F020E0B20748F010927E0410927F0410921D
S113040080041092810401C097984091C2045091D5
S1130410C3046091C4047091C50480E090E0642F2B
S11304200E94800E409188045091890460918A044E
S113043070918B0481E090E0642F0E94800EFF9104
S1130440EF91BF91AF919F918F917F916F915F9148
S11304504F913F912F910F900FBE0F901F901895C1
S1130460DB01FC012081222399F03C91332399F094
S11304702317A1F43196119602C0891791F4819142
S1130480882391F09D919923C1F720E030E00EC0BC
S113049020E030E00BC020E030E008C021E030E094
S11304A005C021E030E002C020E030E081E090E0CF
S11304B02115310511F480E090E00895DC01FB0181
S11304C041155105B1F011969C91119781819817AE
S11304D099F41296329681E090E004C03D91219106
S11304E0321769F4019648175907C0F720E030E045
S11304F008C020E030E005C021E030E002C021E087
S113050030E081E090E02115310511F480E090E0C5
S11305100895A49AA39AA29AA69AB89ABB9ABA9A48
S1130520B99AB99A8F9A8C98BC98C19880E090E057
S11305300E94080D60E875E280E090E00E94830D5F
S11305400E947B0D10927604109277041092780426
S11305501092790410927A0410927B0410927C0415
S113056010927D04109287041092860488E097E02C
S11305709093A5048093A40480E690E00E94CC0D9F
S1130580C0E9D4E007E710E00F2EFBE7EF2EF0E020
S1130590FF2EF02D0F2EFDE7CF2EF0E0DF2EF02DF5
S11305A00F2EF7E9AF2EF0E0BF2EF02D0F2EF1EF56
S11305B04F2EF0E05F2EF02D0F2EFFEC6F2EF0E0AB
S11305C07F2EF02D0F2EF6EA8F2EF4E09F2EF02DC5
S11305D00F2EF9E12F2EF4E03F2EF02DFE010190B5
S11305E00020E9F73197AF014C1B5D0B8C2F9D2F39
S11305F060E070E00E94480ECE010E94F90DDE0119
S11306000D900020E9F7CD0101978C1B9D0B0E94F2
S1130610DB0DC8010E94CC0DCE010E94CC0DC80197
S11306200E94CC0D81E090E00E94780E90E00E9440
S1130630DB0DC7010E94CC0D80E090E00E94780E93
S113064090E00E94DB0DC8010E94CC0DFE010190D8
S11306500020E9F73197EC1BFD0BE830F10508F4B5
S1130660A4C0CE01B60148E050E00E945E020097AB
S113067089F4F401D60189E00D9001928150E1F7EB
S113068086E890E00E94CC0D84E090E061E00E9456
S1130690800EA4CFCE01B5014CE050E00E945E0272
S11306A00097D9F582E090E00E94780E8130A9F19C
S11306B08091BA049091BB04A091BC04B091BD0494
S11306C081309105A105B10521F580E090E060E05D
S11306D00E94800E81E090E060E00E94800E84EA37
S11306E090E00E94CC0D8091A4049091A504909375
S11306F08704809386041092BA041092BB0410926B
S1130700BC041092BD0482E090E061E00E94800E7F
S113071065CFC3010E94CC0D61CFCE01B2014CE084
S113072050E00E945E020097D9F583E090E00E94B9
S1130730780E8130A9F18091BA049091BB04A09104
S1130740BC04B091BD0481309105A105B10521F52A
S113075080E090E060E00E94800E81E090E060E044
S11307600E94800E84EA90E00E94CC0D8091A40443
S11307709091A50490938704809386041092BA0400
S11307801092BB041092BC041092BD0483E090E06C
S113079061E00E94800E22CFC3010E94CC0D1ECFC7
S11307A08EEF90E00E94CC0D19CFE630F10508F0F1
S11307B015CFCE010E942A0E282F892F880F880B6F
S11307C0209376049093770480937804809379043B
S11307D080937A0480937B0480937C0480937D04CB
S11307E0822F0E94DB0D8091BA049091BB04A091EA
S11307F0BC04B091BD040097A105B10541F084E0AB
S113080090E00E94780E813011F00C94120C849BBD
S11308104BC7B49BEBC68FEF99E6A8E1815090409B
S1130820A040E1F700C00000809184049091850409
S1130830906490938504809384040E94080DC19869
S113084086E191E00E94CC0D80917604909177042A
S1130850209178047091790460917A0450917B041A
S113086040917C0430917D04813009F049C0992382
S113087009F046C0222309F043C0772309F040C0A1
S11308806623F1F55523E1F54423D1F53323C1F56E
S1130890809175048823F9F48091840490918504EF
S11308A0806890938504809384040E94080D85E2F7
S11308B091E00E94CC0D809175048F5F8093750444
S11308C0109274048091A4049091A50490938704D9
S11308D08093860404C086E391E00E94CC0D1092BC
S11308E0760410927704109278041092790410928E
S11308F07A0410927B0410927C0410927D046ECED4
S1130900823009F051C0992309F04EC0222309F026
S11309104BC0772309F048C0662309F045C055232E
S113092009F042C0442309F03FC03323E9F5809124
S11309307404882321F580918404909185048F7731
S113094090938504809384040E94080DC19A809139
S11309508604909187049093A5048093A404109234
S11309608704109286048FE491E00E94CC0D80915C
S113097074048F5F809374041092750404C081E63C
S113098091E00E94CC0D109276041092770410929C
S113099078041092790410927A0410927B041092D5
S11309A07C0410927D041ACE833009F044C099234C
S11309B009F041C0222309F03EC07723E1F5662304
S11309C0D1F55523C1F54423B1F53323A1F5809125
S11309D084049091850490689093850480938404A2
S11309E00E94080D8FEF93E2A4EF81509040A04045
S11309F0E1F700C0000080918404909185049F7702
S1130A0090938504809384040E94080D8BE791E001
S1130A100E94CC0D10927604109277041092780400
S1130A201092790410927A0410927B0410927C0440
S1130A3010927D04D3CD843009F044C0992309F089
S1130A4041C0222309F03EC07723E1F56623D1F5A6
S1130A505523C1F54423B1F53323A1F580918404D2
S1130A6090918504816090938504809384040E940E
S1130A70080D8FEF93E2A4EF81509040A040E1F77E
S1130A8000C0000080918404909185048E7F90932F
S1130A908504809384040E94080D8AE891E00E94F2
S1130AA0CC0D109276041092770410927804109270
S1130AB0790410927A0410927B0410927C041092B0
S1130AC07D048CCD853009F05DC0992309F05AC0AE
S1130AD0222309F057C0772309F054C0662309F094
S1130AE051C0552309F04EC0442309F04BC03323B1
S1130AF009F048C080917304882379F580918404B7
S1130B00909185048B7F90938504809384040E9444
S1130B10080D8091840490918504877F90938504C7
S1130B20809384040E94080D80918404909185042C
S1130B30826090938504809384040E94080D8AE95E
S1130B4091E00E94CC0D809173048F5F80937304B5
S1130B50109271041092720404C08EEA91E00E9413
S1130B60CC0D1092760410927704109278041092AF
S1130B70790410927A0410927B0410927C041092EF
S1130B807D042CCD863009F05DC0992309F05AC04C
S1130B90222309F057C0772309F054C0662309F0D3
S1130BA051C0552309F04EC0442309F04BC03323F0
S1130BB009F048C080917204882379F580918404F7
S1130BC0909185048D7F90938504809384040E9482
S1130BD0080D8091840490918504877F9093850407
S1130BE0809384040E94080D80918404909185046C
S1130BF0846090938504809384040E94080D8AEC99
S1130C0091E00E94CC0D809172048F5F80937204F6
S1130C10109273041092710404C08BED91E00E9451
S1130C20CC0D1092760410927704109278041092EE
S1130C30790410927A0410927B0410927C0410922E
S1130C407D04CCCC873009F05DC0992309F05AC0EB
S1130C50222309F057C0772309F054C0662309F012
S1130C6051C0552309F04EC0442309F04BC033232F
S1130C7009F048C080917104882379F58091840437
S1130C80909185048B7F90938504809384040E94C3
S1130C90080D80918404909185048D7F9093850440
S1130CA0809384040E94080D8091840490918504AB
S1130CB0886090938504809384040E94080D84EFD7
S1130CC091E00E94CC0D809171048F5F8093710438
S1130CD0109272041092730404C088E092E00E949F
S1130CE0CC0D10927604109277041092780410922E
S1130CF0790410927A0410927B0410927C0410926E
S1130D007D046CCC883009F068C0992309F065C073
S1130D10222309F062C0772309F05FC0662309F03B
S1130D205CC0552309F059C0442309F056C033234D
S1130D3009F053C0809170048823D1F58091840414
S1130D40909185048F7D90938504809384040E9400
S1130D50080D80918404909185048F7B9093850481
S1130D60809384040E94080D8091840490918504EA
S1130D70806190938504809384040E94080D80917F
S1130D8084049091850491609093850480938404F5
S1130D900E94080D84E292E00E94CC0D80917004C0
S1130DA08F5F8093700410926E0410926F0404C0DD
S1130DB084E392E00E94CC0D1092760410927704A2
S1130DC0109278041092790410927A0410927B04A1
S1130DD010927C0410927D0401CC893009F068C023
S1130DE0992309F065C0222309F062C0772309F032
S1130DF05FC0662309F05CC0552309F059C0442341
S1130E0009F056C0332309F053C080916F0488233E
S1130E10D1F580918404909185048F7E909385040C
S1130E20809384040E94080D809184049091850429
S1130E309E7F90938504809384040E94080D809182
S1130E408404909185048F7B90938504809384041B
S1130E500E94080D8091840490918504806290938F
S1130E608504809384040E94080D8CE492E00E941F
S1130E70CC0D80916F048F5F80936F041092700487
S1130E8010926E0404C08CE592E00E94CC0D109286
S1130E9076041092770410927804109279041092D8
S1130EA07A0410927B0410927C0410927D0496CBF9
S1130EB08A3009F068C0992309F065C0222309F03B
S1130EC062C0772309F05FC0662309F05CC0552334
S1130ED009F059C0442309F056C0332309F053C024
S1130EE080916E048823D1F58091840490918504C7
S1130EF08F7D90938504809384040E94080D8091D3
S1130F008404909185048F7E909385048093840457
S1130F100E94080D80918404909185049E7F909393
S1130F208504809384040E94080D80918404909128
S1130F308504806490938504809384040E94080D42
S1130F4084E792E00E94CC0D80916E048F5F8093C1
S1130F506E0410926F041092700404C084E892E04E
S1130F600E94CC0D109276041092770410927804AB
S1130F701092790410927A0410927B0410927C04EB
S1130F8010927D042BCB8B3009F04EC0992309F0CD
S1130F904BC0222309F048C0772309F045C06623DB
S1130FA009F042C0552309F03FC04423E9F5332337
S1130FB0D9F580916D04882311F580918404909172
S1130FC085049D7F90938504809384040E94080D7A
S1130FD08091840490918504906290938504809319
S1130FE084040E94080D8CE992E00E94CC0D80914B
S1130FF06D048F5F80936D0410926C0404C085EBC4
S113100092E00E94CC0D1092760410927704109214
S113101078041092790410927A0410927B0410924E
S11310207C0410927D04DACA8C3009F04EC09923F6
S113103009F04BC0222309F048C0772309F045C0CA
S1131040662309F042C0552309F03FC04423E9F563
S11310503323D9F580916C04882311F5809184049D
S1131060909185049F7D90938504809384040E94CD
S1131070080D809184049091850492609093850476
S1131080809384040E94080D86ED92E00E94CC0DAA
S113109080916C048F5F80936C0410926D0404C083
S11310A080EF92E00E94CC0D1092760410927704A7
S11310B0109278041092790410927A0410927B04AE
S11310C010927C0410927D0489CA8D3009F044C0CA
S11310D0992309F041C0222309F03EC07723E1F5AA
S11310E06623D1F55523C1F54423B1F53323A1F586
S11310F080918404909185049460909385048093F6
S113110084040E94080D8FEF93E2A4EF8150904075
S1131110A040E1F700C00000809184049091850410
S11311209B7F90938504809384040E94080D82E140
S113113093E00E94CC0D10927604109277041092E2
S113114078041092790410927A0410927B0410921D
S11311507C0410927D0442CA8E3009F05FC099234A
S113116009F05CC0222309F059C0772309F056C066
S1131170662309F053C0552309F050C0442309F0F5
S11311804DC0332309F04AC08091840490918504B2
S1131190906190938504809384040E94080D80914B
S11311A084049091850498609093850480938404CA
S11311B00E94080D8FEF93E2A4EF81509040A0406D
S11311C0E1F700C0000080918404909185049F7E23
S11311D090938504809384040E94080D8091840474
S11311E090918504977F90938504809384040E9452
S11311F0080D86E293E00E94CC0D109276041092C2
S11312007704109278041092790410927A04109260
S11312107B0410927C0410927D04E0C98F3071F538
S1131220992361F5222351F5772341F5662331F59E
S1131230552321F5442311F5332301F580918404CA
S113124090918504906490938504809384040E9413
S1131250080D88E393E00E94CC0D1092760410925E
S11312607704109278041092790410927A04109200
S11312707B0410927C0410927D04B0C98E3149F530
S1131280992339F5222329F5772319F5662309F5DE
S11312905523F9F44423E9F43323D9F488E691E09F
S11312A0909387048093860489E493E00E94CC0D94
S11312B010927604109277041092780410927904B4
S11312C010927A0410927B0410927C0410927D0494
S11312D085C98F3149F5992339F5222329F57723D7
S11312E019F5662309F55523F9F44423E9F4332366
S11312F0D9F480ED92E0909387048093860489E585
S113130093E00E94CC0D1092760410927704109210
S113131078041092790410927A0410927B0410924B
S11313207C0410927D045AC9803249F5992339F519
S1131330222329F5772319F5662309F55523F9F4B2
S11313404423E9F43323D9F488E394E090938704A5
S11313508093860489E693E00E94CC0D1092760473
S113136010927704109278041092790410927A04FF
S113137010927B0410927C0410927D042FC9813258
S113138049F5992339F5222329F5772319F566239D
S113139009F55523F9F44423E9F43323D9F480EA15
S11313A095E0909387048093860489E793E00E94F4
S11313B0CC0D109276041092770410927804109257
S11313C0790410927A0410927B0410927C04109297
S11313D07D0404C9823249F5992339F5222329F57C
S11313E0772319F5662309F55523F9F44423E9F421
S11313F03323D9F488E097E090938704809386049C
S113140089E893E00E94CC0D109276041092770440
S1131410109278041092790410927A0410927B044A
S113142010927C0410927D04D9C8833249F5992323
S113143039F5222329F5772319F5662309F5552370
S1131440F9F44423E9F43323D9F480E798E0909342
S113145087048093860489E993E00E94CC0D10925E
S11314607604109277041092780410927904109202
S11314707A0410927B0410927C0410927D04AEC80E
S1131480843249F5992339F5222329F5772319F56F
S1131490662309F55523F9F44423E9F43323D9F4F5
S11314A088ED99E0909387048093860489EA93E019
S11314B00E94CC0D10927604109277041092780456
S11314C01092790410927A0410927B0410927C0496
S11314D010927D0483C8853249F5992339F5222376
S11314E029F5772319F5662309F55523F9F44423DF
S11314F0E9F43323D9F480E49BE090938704809348
S1131500860489EB93E00E94CC0D1092760410922D
S11315107704109278041092790410927A0410924D
S11315207B0410927C0410927D0458C8863249F5DD
S1131530992339F5222329F5772319F5662309F52B
S11315405523F9F44423E9F43323D9F488EA9CE0DD
S1131550909387048093860489EC93E00E94CC0DD9
S11315601092760410927704109278041092790401
S113157010927A0410927B0410927C0410927D04E1
S11315802DC8873209F02AC8992309F027C82223D5
S113159009F024C8772309F021C8662309F01EC87E
S11315A0552309F01BC8442309F018C8332311F04C
S11315B00C94EE0280E19EE090938704809386046D
S11315C089ED93E00E94CC0D10927604109277047A
S11315D0109278041092790410927A0410927B0489
S11315E010927C0410927D040C94EE028AEE93E037
S11315F00E94CC0DC19A10928704109286048091A7
S11316007604813009F04AC080917704882309F078
S113161045C080917804882309F040C08091790402
S11316208823E1F580917A048823C1F580917B04B5
S11316308823A1F580917C04882381F580917D0421
S1131640882361F5C1988091840490918504806811
S113165090938504809384040E94080D85E291E0B0
S11316600E94CC0D109276041092770410927804A4
S11316701092790410927A0410927B0410927C04E4
S113168010927D04109274048091A4049091A50496
S113169090938704809386040C94EE0288EF93E081
S11316A00E94CC0D0C94EE02C1010E94CC0D8091DD
S11316B076049091770420917804309179044091D4
S11316C07A0470917B0460917C0450917D04813094
S11316D009F04CC0992309F049C0222309F046C0FF
S11316E0332309F043C0442309F040C07723F1F5C4
S11316F06623E1F55523D1F580917504882301F51E
S1131700C1988091840490918504806890938504A5
S1131710809384040E94080D85E291E00E94CC0D20
S1131720809175048F5F8093750410927404809186
S1131730A4049091A504909387048093860404C024
S113174086E391E00E94CC0D109276041092770407
S1131750109278041092790410927A0410927B0407
S113176010927C0410927D040C94EE02823009F0F5
S113177053C0992309F050C0222309F04DC03323EC
S113178009F04AC0442309F047C0772309F044C054
S1131790662309F041C0552309F03EC080917404CA
S11317A0882321F580918404909185048F77909308
S11317B08504809384040E94080DC19A8091860454
S11317C0909187049093A5048093A40410928704B5
S11317D0109286048FE491E00E94CC0D80917404F1
S11317E08F5F809374041092750404C081E691E0C5
S11317F00E94CC0D10927604109277041092780413
S11318001092790410927A0410927B0410927C0452
S113181010927D040C94EE028BE294E00E94CC0DB5
S11318200C94EE028091BA049091BB04A091BC0484
S1131830B091BD0481309105A105B10511F00C945E
S1131840EE0288E494E00E94CC0D0C94EE02AB9A74
S11318508FE19EE40197F1F700C00000AB988FE19F
S11318609EE40197F1F700C000000895C39A8FE148
S11318709EE40197F1F700C00000C3988FE19EE455
S11318800197F1F700C00000089595B38295807F19
S11318909F7E982B95BB8FE19EE40197F1F700C0E2
S11318A000000E94270C089598B39E7F892B88BB63
S11318B08FE19EE40197F1F700C000000E94360C0E
S11318C00895C19A0895C19808958FE19EE40197FF
S11318D0F1F700C00000AA9A8FE19EE40197F1F7A6
S11318E000C0000008958FE19EE40197F1F700C065
S11318F00000C29A8FE19EE40197F1F700C0000056
S113190008958FE19EE40197F1F700C00000AA98C2
S11319108FE19EE40197F1F700C0000008950F9352
S11319201F93CF93DF93082F0E94810CC3E0D0E074
S113193010E0C8010C2E02C0959587950A94E2F731
S113194081700E94450C21978FEFCF3FD80789F70C
S11319500E94650CDF91CF911F910F9108950F9311
S11319601F93CF93DF938C010E94810CCFE0D0E0D2
S1131970C8010C2E02C0969587950A94E2F78170EF
S11319800E94450C8FE19EE40197F1F700C000002E
S113199021979FEFCF3FD90759F70E94650CDF913C
S11319A0CF911F910F9108950F931F93CF93DF93BE
S11319B0082F0E94810CC7E0D0E010E0C8010C2E73
S11319C002C0959587950A94E2F781700E94450CB0
S11319D08FE19EE40197F1F700C0000021979FEF8B
S11319E0CF3FD90759F70E94650CDF91CF911F9122
S11319F00F9108958FE19EE40197F1F700C0000074
S1131A00C2988FE19EE40197F1F700C000000895A9
S1131A100F931F93CF93DF938C010E94FA0CCFE0B6
S1131A20D0E0C8010C2E02C0969587950A94E2F77F
S1131A3081700E94540C8FE19EE40197F1F700C07D
S1131A40000021979FEFCF3FD90759F70E94730CED
S1131A50DF91CF911F910F9108950F931F93CF930F
S1131A60DF93082F0E94FA0CC7E0D0E010E0C80111
S1131A700C2E02C0959587950A94E2F781700E9416
S1131A80540C8FE19EE40197F1F700C00000219708
S1131A909FEFCF3FD90759F70E94730CDF91CF9185
S1131AA01F910F9108958FEF0E942D0D8FEF91EEEE
S1131AB0A4E081509040A040E1F700C0000080E025
S1131AC00E942D0D8FEF91EEA4E081509040A04034
S1131AD0E1F700C000008FEF0E942D0D8FEF91EE13
S1131AE0A4E081509040A040E1F700C0000080E0F5
S1131AF00E942D0D089589B7816089BF12BE85E0CB
S1131B0083BF78940895DC01CB0126E820BD28E149
S1131B102AB9880F991FAA1FBB1F880F991FAA1FD4
S1131B20BB1F9C01AD01220F331F441F551F220F01
S1131B30331F441F551F60E074E284EF90E00E945D
S1131B40080EDA01C9010197A109B10989B9892FE0
S1131B509A2FAB2FBB2780BD08955D9BFECF8CB918
S1131B600895FC01549A5F9910C0208131818AEE56
S1131B702036380751F02F5F3F4F318320835F9920
S1131B8004C08AEE20363807B1F78CB15498089512
S1131B905F9BFECF8CB10895CF93DF93EC018881D6
S1131BA0882331F021960E94AD0D89918823D9F7BD
S1131BB0DF91CF910895CF93DF93CDB7DEB72A9706
S1131BC00FB6F894DEBF0FBECDBFBE016F5F7F4F6F
S1131BD04AE050E00E944F0ECE0101960E94CC0DC7
S1131BE02A960FB6F894DEBF0FBECDBFDF91CF911A
S1131BF00895CF93DF93EC0101C0EF010E94C80D5B
S1131C00FE0181938332C9F71882DF91CF91089541
S1131C10A1E21A2EAA1BBB1BFD010DC0AA1FBB1FEC
S1131C20EE1FFF1FA217B307E407F50720F0A21B5E
S1131C30B30BE40BF50B661F771F881F991F1A94CB
S1131C4069F760957095809590959B01AC01BD01F5
S1131C50CF010895FC0188279927E8942191203227
S1131C60E9F3293010F02E30C8F32B3241F02D3235
S1131C7039F4689404C00E94700E820F911D219162
S1131C8020532A30C0F31EF4909581959F4F0895F8
S1131C90DC0101C06D9341505040E0F70895FB0111
S1131CA09F01E8944230C4F04532B4F44A3029F438
S1131CB097FB1EF4909581959F4F642F77270E9480
S1131CC0A10E805D8A330CF0895D8193CB0100976E
S1131CD0A1F716F45DE251931082C9010C94910EA0
S1131CE07AE0979F902D879F802D910D1124089560
S1131CF0E199FECF9FBB8EBBE09A99278DB30895DF
S1131D00262FE199FECF9FBB8EBBE09A01970DB2BF
S1131D10021631F02DBB0FB6F894E29AE19A0FBE89
S1131D200895DC01FC01672F71917723E1F7329765
S1131D3004C07C916D9370836291AE17BF07C8F3A2
S1131D400895AA1BBB1B51E107C0AA1FBB1FA617FE
S1131D50B70710F0A61BB70B881F991F5A95A9F750
S1111D6080959095BC01CD010895F894FFCFB5
S1131D6E57454C434F4D452046524F4D2041544DFF
S1131D7E45474133322000202D20003A004D4F318B
S1131D8E323334353600504153574F524420434F6B
S1131D9E52524543542000325745454B53315F5000
S1131DAE41535300504153574F524420434F5252C4
S1131DBE454354202D20415641494C41424C452027
S1131DCE464F522031303020484F55525320005741
S1131DDE4149542054494C4C20415649414C4142AE
S1131DEE4C452054494D452046494E495348454497
S1131DFE00325745454B53325F50415353005041C7
S1131E0E53574F5244204953204E4F5420434F5260
S1131E1E5245435420004E4F524D414C204D4F4499
S1131E2E45202D200047454E455241544F52204FD8
S1131E3E4E204E6F770047454E455241544F522027
S1131E4E416C7265616479204F4E204E6F77004766
S1131E5E454E455241544F52204F4646204E6F77C1
S1131E6E0047454E455241544F5220416C726561B4
S1131E7E6479204F4646204E6F77004F4E205075A2
S1131E8E6C736520446F6E6520004F464620507576
S1131E9E6C736520446F6E652000464F5257415255
S1131EAE4420576F726B696E67204E6F7700464FF2
S1131EBE525741524420416C726561647920576FC8
S1131ECE726B696E67204E6F77004155544F2057E1
S1131EDE6F726B696E67204E6F77004155544F20B9
S1131EEE416C726561647920576F726B696E6720FD
S1131EFE4E6F77005245564552534520576F726BBD
S1131F0E696E67204E6F77005245564552534520F1
S1131F1E416C726561647920576F726B696E6720CC
S1131F2E4E6F770044525920576F726B696E67205B
S1131F3E4E6F770044525920416C7265616479206A
S1131F4E576F726B696E67204E6F7700574554203A
S1131F5E576F726B696E67204E6F7700574554202A
S1131F6E416C726561647920576F726B696E67207C
S1131F7E4E6F770041555820576F726B696E67200C
S1131F8E4E6F770041555820416C7265616479201B
S1131F9E576F726B696E67204E6F770044495245D6
S1131FAE4354494F4E5F4F4E20576F726B696E67A5
S1131FBE204E6F7700444952454354494F4E5F4F6C
S1131FCE4E20416C726561647920576F726B696E35
S1131FDE67204E6F7700444952454354494F4E5F34
S1131FEE4F464620576F726B696E67204E6F7700AF
S1131FFE444952454354494F4E5F4F464620416C27
S113200E726561647920576F726B696E67204E6FCB
S113201E7700524553544152542050756C736520C9
S113202E446F6E65200053414654592050756C73AD
S113203E6520446F6E65200052454C415931352060
S113204E4F4E20446F6E6520005350454544203159
S113205E302520446F6E6520005350454544203290
S113206E302520446F6E652000535045454420337F
S113207E302520446F6E652000535045454420346E
S113208E302520446F6E652000535045454420355D
S113209E302520446F6E652000535045454420364C
S11320AE302520446F6E652000535045454420373B
S11320BE302520446F6E652000535045454420382A
S11320CE302520446F6E6520005350454544203919
S11320DE302520446F6E6520005350454544203111
S11320EE30302520446F6E652000534C45455020FA
S11320FE4D4F4445202D200047454E455241544FE7
S113210E52204F4646202D20464952452047454EE3
S113211E4552204649525354004D414E55414C2090
S113212E4D4F4445204F4E202D200043414E204F0D
S113213E4E206F72204F46462047454E455241541D
S113214E4F52204F4E4C5900415641494C41424C3E
S113215E452054494D452046494E4953484544006F
S10F216E4D4F31323334353600FFFF0092
S9030000FC
