:100000000C942A000C9434000C9434000C943400AA
:100010000C9434000C9434000C9434000C94340090
:100020000C9434000C9434000C9434000C94340080
:100030000C9434000C9434000C9434000C94340070
:100040000C9434000C9434000C9434000C94340060
:100050000C94340011241FBECFE5D8E0DEBFCDBF25
:100060000E9436000C94E1000C9400008FEF8ABBD4
:100070001BBA28EC30E0D89A84EF91E0F90131976F
:10008000F1F70197D9F7D89884EF91E0F90131970A
:10009000F1F70197D9F7D99A84EF91E0F9013197F7
:1000A000F1F70197D9F7D99884EF91E0F9013197E9
:1000B000F1F70197D9F7DA9A84EF91E0F9013197D6
:1000C000F1F70197D9F7DA9884EF91E0F9013197C8
:1000D000F1F70197D9F7DB9A84EF91E0F9013197B5
:1000E000F1F70197D9F7DB9884EF91E0F9013197A7
:1000F000F1F70197D9F7DC9A84EF91E0F901319794
:10010000F1F70197D9F7DC9884EF91E0F901319785
:10011000F1F70197D9F7DD9A84EF91E0F901319772
:10012000F1F70197D9F7DD9884EF91E0F901319764
:10013000F1F70197D9F7DE9A84EF91E0F901319751
:10014000F1F70197D9F7DE9884EF91E0F901319743
:10015000F1F70197D9F7DF9A84EF91E0F901319730
:10016000F1F70197D9F7DF9884EF91E0F901319722
:10017000F1F70197D9F740E050E0D89AD99ADA9A86
:10018000DB9ADC9ADD9ADE9ADF9A84EF91E0F9013E
:100190003197F1F70197D9F7D898D998DA98DB9881
:1001A000DC98DD98DE98DF9884EF91E0F9013197D3
:1001B000F1F70197D9F74F5F5F4F4A305105E9F6E4
:0601C0005ACFF894FFCFB6
:00000001FF
