:100000000C942A000C9434000C9434000C943400AA
:100010000C9434000C9434000C9434000C94340090
:100020000C9434000C9434000C9434000C94340080
:100030000C9434000C9434000C9434000C94340070
:100040000C9434000C9434000C9434000C94340060
:100050000C94340011241FBECFE5D8E0DEBFCDBF25
:100060000E9436000C94F5010C94000014BA8FEF36
:1000700085BB8ABB1BBA81BB12BA68EC70E0A1E0F9
:10008000B0E0989922C0D89A84EF91E0FB013197B3
:10009000F1F70197D9F7D89884EF91E0FB013197F8
:1000A000F1F70197D9F7909A84EF91E0FB0131972E
:1000B000F1F70197D9F7909884EF91E0FB01319720
:1000C000F1F70197D9F7989BFECF999937C040E097
:1000D00050E02BB3CD01042E02C0880F991F0A9463
:1000E000E2F7982F282B2BBB24EF31E0FB0131974F
:1000F000F1F721503040D1F78BB3909598239BBBFB
:1001000084EF91E0FB013197F1F70197D9F74F5F49
:100110005F4F42305105E9F6909A84EF91E0FB0180
:100120003197F1F70197D9F7909884EF91E0FB01AF
:100130003197F1F70197D9F7999BFECF9A9937C07C
:1001400040E050E02BB3CD01042E02C0880F991F70
:100150000A94E2F7982F282B2BBB24EF31E0FB0108
:100160003197F1F721503040D1F78BB39095982318
:100170009BBB84EF91E0FB013197F1F70197D9F731
:100180004F5F5F4F43305105E9F6909A84EF91E05D
:10019000FB013197F1F70197D9F7909884EF91E03F
:1001A000FB013197F1F70197D9F79A9BFECF9B9905
:1001B00037C040E050E02BB3CD01042E02C0880FC1
:1001C000991F0A94E2F7982F282B2BBB24EF31E0DC
:1001D000FB013197F1F721503040D1F78BB3909567
:1001E00098239BBB84EF91E0FB013197F1F70197D6
:1001F000D9F74F5F5F4F44305105E9F6909A84EF8D
:1002000091E0FB013197F1F70197D9F7909884EFCE
:1002100091E0FB013197F1F70197D9F79B9BFECF56
:100220009C9937C040E050E02BB3CD01042E02C0B2
:10023000880F991F0A94E2F7982F282B2BBB24EFE5
:1002400031E0FB013197F1F721503040D1F78BB30A
:10025000909598239BBB84EF91E0FB013197F1F7D8
:100260000197D9F74F5F5F4F45305105E9F6909AF6
:1002700084EF91E0FB013197F1F70197D9F790985E
:1002800084EF91E0FB013197F1F70197D9F79C9B3F
:10029000FECF9D9937C040E050E02BB3CD01042E36
:1002A00002C0880F991F0A94E2F7982F282B2BBBC6
:1002B00024EF31E0FB013197F1F721503040D1F7C5
:1002C0008BB3909598239BBB84EF91E0FB01319712
:1002D000F1F70197D9F74F5F5F4F46305105E9F6C7
:1002E000909A84EF91E0FB013197F1F70197D9F7EC
:1002F000909884EF91E0FB013197F1F70197D9F7DE
:100300009D9BFECF9E9937C040E050E02BB3CD01BE
:10031000042E02C0880F991F0A94E2F7982F282B09
:100320002BBB24EF31E0FB013197F1F72150304036
:10033000D1F78BB3909598239BBB84EF91E0FB01A1
:100340003197F1F70197D9F74F5F5F4F473051056C
:10035000E9F6909A84EF91E0FB013197F1F701976C
:10036000D9F7909884EF91E0FB013197F1F701976D
:10037000D9F79E9BFECF9F9984CE40E050E02BB3EF
:10038000CD01042E02C0880F991F0A94E2F7982F1E
:10039000282B2BBB24EF31E0FB013197F1F72150E3
:1003A0003040D1F78BB3909598239BBB84EF91E0BD
:1003B000FB013197F1F70197D9F74F5F5F4F483055
:1003C0005105E9F6909A84EF91E0FB013197F1F73E
:1003D0000197D9F7909884EF91E0FB013197F1F7FD
:0E03E0000197D9F79F9BFECF4CCEF894FFCF2C
:00000001FF
